:020000040800F2
:10000000005000203D0B0008F9090008FF09000816
:10001000050A00080B0A0008110A00080000000089
:10002000000000000000000000000000170A0008A7
:10003000230A0008000000002F0A00083B0A0008FD
:10004000850B0008850B0008850B0008850B000850
:10005000850B0008850B0008850B0008850B000840
:10006000850B0008850B0008850B0008850B000830
:10007000850B0008850B0008850B0008850B000820
:10008000850B0008850B0008850B0008850B000810
:10009000850B0008850B0008850B0008850B000800
:1000A000850B0008850B0008850B0008850B0008F0
:1000B000850B0008850B0008850B0008850B0008E0
:1000C000850B0008850B0008850B0008850B0008D0
:1000D000850B0008850B0008850B0008850B0008C0
:1000E000850B0008850B0008850B00080000000048
:1000F0000000000000000000000000000000000000
:0C01000000000000000000005FF808F1A3
:10010C0010B5054C237833B9044B13B10448AFF345
:10011C0000800123237010BD0C00002000000000A3
:10012C00E81D000808B5034B1BB103490348AFF3A6
:10013C00008008BD0000000010000020E81D000831
:10014C0080B500AF00F0FCFAFCE7000080B489B089
:10015C0000AF78600023BB61194B5B687B61194B66
:10016C001A687B6802FB03F33B61154B9B68FB61D0
:10017C00134B9B68FB60FA68FB699A42F8D0FA68EB
:10018C00FB699A4206D2FA69FB68D31ABA6913441E
:10019C00BB6107E07A69FB68D21AFB691344BA6940
:1001AC001344BB61FB68FB61BA693B699A4200D29C
:1001BC00DEE700BF00BF2437BD4680BC704700BFE0
:1001CC0010E000E02800002080B584B000AF0346AA
:1001DC00FB800023FB6006E04FF47A70FFF7B6FF5C
:1001EC00FB680133FB60FB88FA689A42F4D300BFCA
:1001FC001037BD4680BD000080B582B000AF03460D
:10020C00FB71042000F000FEFB79034A136000BF71
:10021C000837BD4680BD00BF2800002080B400AF69
:10022C00034B4FF400621A6100BFBD4680BC70479F
:10023C00000C014080B400AF034B4FF480621A6194
:10024C0000BFBD4680BC7047000C014080B400AFBD
:10025C00034B4FF400421A6100BFBD4680BC70478F
:10026C00000C014080B400AF034B4FF400521A61F4
:10027C0000BFBD4680BC7047000C014080B400AF8D
:10028C00034B4FF480521A6100BFBD4680BC7047CF
:10029C00000C014080B400AF034B4FF400721A61A4
:1002AC0000BFBD4680BC7047000C014080B400AF5D
:1002BC00034B4FF400625A6100BFBD4680BC7047CF
:1002CC00000C014080B400AF034B4FF480625A61C4
:1002DC0000BFBD4680BC7047000C014080B400AF2D
:1002EC00034B4FF400425A6100BFBD4680BC7047BF
:1002FC00000C014080B400AF034B4FF400525A6124
:10030C0000BFBD4680BC7047000C014080B400AFFC
:10031C00034B4FF480525A6100BFBD4680BC7047FE
:10032C00000C014080B400AF034B4FF400725A61D3
:10033C0000BFBD4680BC7047000C014080B500AFCB
:10034C0000F063F9112000F025F9002000F035F9D8
:10035C00CF2000F01FF9002000F02FF9C12000F091
:10036C002CF9302000F029F9ED2000F013F964206D
:10037C0000F023F9032000F020F9122000F01DF901
:10038C00812000F01AF9E82000F004F9852000F033
:10039C0014F9112000F011F9782000F00EF9F62074
:1003AC0000F0F8F8012000F008F9302000F005F911
:1003BC00002000F002F9CB2000F0ECF8392000F01E
:1003CC00FCF82C2000F0F9F8002000F0F6F83420AE
:1003DC0000F0F3F8052000F0F0F8F72000F0DAF860
:1003EC00202000F0EAF8EA2000F0D4F8002000F019
:1003FC00E4F8002000F0E1F8C02000F0CBF8202059
:10040C0000F0DBF8C12000F0C5F8112000F0D5F8A1
:10041C00C52000F0BFF8312000F0CFF83C2000F0F0
:10042C00CCF8C72000F0B6F8A92000F0C6F83A20A6
:10043C0000F0B0F8552000F0C0F8362000F0AAF813
:10044C00482000F0BAF8B12000F0A4F8002000F029
:10045C00B4F8182000F0B1F8B42000F09BF800209C
:10046C0000F0ABF8002000F0A8F8F22000F092F8B1
:10047C00002000F0A2F8262000F08CF8012000F0FB
:10048C009CF8E02000F086F80F2000F096F817207A
:10049C0000F093F8142000F090F8092000F08DF88B
:1004AC000C2000F08AF8062000F087F8432000F0BA
:1004BC0084F8752000F081F8362000F07EF80820D2
:1004CC0000F07BF8132000F078F8052000F075F8A8
:1004DC00102000F072F80B2000F06FF8082000F0EC
:1004EC006CF8E12000F056F8002000F066F81F20B0
:1004FC0000F063F8232000F060F8032000F05DF8B2
:10050C000E2000F05AF8042000F057F8392000F0C3
:10051C0054F8252000F051F84D2000F04EF806203C
:10052C0000F04BF80D2000F048F80B2000F045F8D7
:10053C00332000F042F8372000F03FF80F2000F095
:10054C003CF8292000F026F800BF80BD80B584B0AF
:10055C0000AF0346FB710023FB730823FB7312E00F
:10056C0097F90730002B02DAFFF770FE01E0FFF776
:10057C00B5FEFFF7BFFEFFF775FEFB795B00FB7165
:10058C00FB7B013BFB73FB7B002BE9D100BF1037DE
:10059C00BD4680BD80B582B000AF0346FB71FFF74E
:1005AC0085FEFFF78FFEFB791846FFF7CFFFFFF7AD
:1005BC0035FE00BF0837BD4680BD80B582B000AFA8
:1005CC000346FB71FFF772FEFFF734FEFB7918460A
:1005DC00FFF7BCFFFFF722FE00BF0837BD4680BD0A
:1005EC0080B582B000AF0346FB80FB881B0A9BB230
:1005FC00DBB21846FFF7E1FFFB88DBB21846FFF7CA
:10060C00DCFF00BF0837BD4680BD80B500AFFFF7EB
:10061C007DFE6420FFF7D8FDFFF730FE3220FFF798
:10062C00D3FD00BF80BD80B584B000AF0346FB8016
:10063C0040F23F13EF220021002000F018F8FFF7E2
:10064C0035FEFFF7F7FD0023FB6006E0FB8818463C
:10065C00FFF7C6FFFB680133FB60FB68B3F5963F01
:10066C00F4D3FFF7DBFD00BF1037BD4680BD90B55E
:10067C0083B000AF0446084611461A462346FB8059
:10068C000346BB800B467B8013463B802A20FFF73A
:10069C0081FFFB881846FFF7A3FF7B881846FFF7FE
:1006AC009FFF2B20FFF776FFBB881846FFF798FFBC
:1006BC003B881846FFF794FF2C20FFF76BFF00BF19
:1006CC000C37BD4690BD80B582B000AF0123FB71E5
:1006DC004EF67D70FFF7A7FF4FF4FA70FFF774FD2D
:1006EC0025E04FF6FF70FFF79EFF4FF49670FFF773
:1006FC006BFD0020FFF797FF4FF49670FFF764FD3A
:10070C004FF47840FFF78FFF4FF49670FFF75CFDC6
:10071C004FF4FC60FFF787FF4FF49670FFF754FD22
:10072C001F20FFF780FF4FF49670FFF74DFDFB790C
:10073C005A1EFA71002BD4D100BF0837BD4680BDBC
:10074C0080B500AFFFF7FAFDFFF7A4FDFFF7BBFF85
:10075C0040F2DC50FFF738FDFFF7E4FD00BF80BD31
:10076C0080B588B000AF07F1100300221A605A6000
:10077C009A60DA601E4B9B691D4A43F0200393611B
:10078C001B4B9B6903F02003FB60FB68184B9B69B8
:10079C00174A43F004039361154B9B6903F0040360
:1007AC00BB60BB68124B9B69114A43F00803936111
:1007BC000F4B9B6903F008037B607B6800224FF4AE
:1007CC00F0510C4800F096FC4FF43E433B61012382
:1007DC007B610023BB610323FB6107F11003194606
:1007EC00044800F02DFB00BF2037BD4680BD00BF84
:1007FC0000100240000C014080B500AF124B134AB0
:10080C001A60114B124A5A600F4B00229A600E4B21
:10081C000022DA600C4B4FF480421A610A4B002222
:10082C005A61094B00229A61074B0022DA61064B90
:10083C0000221A62044800F075FC0346002B01D01C
:10084C0000F09DF800BF80BD2C000020005400403B
:10085C00A086010080B588B000AF786007F1100366
:10086C0000221A605A609A60DA607B681B68154A2D
:10087C00934223D1144B9B69134A43F008039361B1
:10088C00114B9B6903F00803FB60FB68C0233B61C1
:10089C0012237B610323FB6107F1100319460B48FC
:1008AC0000F0CEFA084BDB69074A43F40013D3611E
:1008BC00054BDB6903F40013BB60BB6800BF20373A
:1008CC00BD4680BD0054004000100240000C0140A9
:1008DC0080B500AF00F052F900F00CF84820FFF79B
:1008EC008BFCFFF73DFFFFF787FF00F0ADF8FFF73C
:1008FC0027FCFCE780B590B000AF07F11803282265
:10090C000021184601F062FA3B1D00221A605A6061
:10091C009A60DA601A610123BB614FF48033FB618A
:10092C0000233B620123BB6202237B634FF48033C1
:10093C00BB634FF4E013FB6307F11803184600F098
:10094C0029FD0346002B01D000F019F80F237B6022
:10095C000223BB600023FB604FF480633B610023E8
:10096C007B613B1D0221184600F094FF0346002BCF
:10097C0001D000F004F800BF4037BD4680BD80B404
:10098C0000AF72B6FEE7000080B485B000AF154B27
:10099C009B69144A43F001039361124B9B6903F06A
:1009AC000103BB60BB680F4BDB690E4A43F08053FD
:1009BC00D3610C4BDB6903F080537B607B680A4B83
:1009CC005B68FB60FB6823F0E063FB60FB6843F053
:1009DC000073FB60044AFB68536000BF1437BD46CC
:1009EC0080BC7047001002400000014080B400AF92
:1009FC00FEE780B400AFFEE780B400AFFEE780B442
:100A0C0000AFFEE780B400AFFEE780B400AF00BFDC
:100A1C00BD4680BC704780B400AF00BFBD4680BCF3
:100A2C00704780B400AF00BFBD4680BC704780B536
:100A3C0000AF00F0E9F800BF80BD80B400AF00BF8C
:100A4C00BD4680BC7047000080B500AF114B124A08
:100A5C001A60104B4FF4E1325A600E4B00229A6030
:100A6C000C4B0022DA600B4B00221A61094B0C2252
:100A7C005A61084B00229A61064B0022DA61054844
:100A8C0001F0A4F80346002B01D0FFF778FF00BF5C
:100A9C0080BD00BF800000200044004080B588B0BD
:100AAC0000AF786007F1100300221A605A609A6058
:100ABC00DA607B681B681B4A93422FD11A4BDB69A7
:100ACC00194A43F40033D361174BDB6903F4003349
:100ADC00FB60FB68144B9B69134A43F0040393615E
:100AEC00114B9B6903F00403BB60BB6804233B619F
:100AFC0002237B610323FB6107F1100319460B48AA
:100B0C0000F09EF908233B6100237B610023BB614D
:100B1C0007F110031946054800F092F900BF203781
:100B2C00BD4680BD0044004000100240000801405A
:100B3C00002103E00B4B5B58435004310A480B4B2C
:100B4C0042189A42F6D30A4A02E0002342F8043BC8
:100B5C00084B9A42F9D3FFF770FF01F013F9FFF736
:100B6C00B7FE7047341E0008000000200C00002067
:100B7C000C000020C4000020FEE7000080B500AF90
:100B8C00084B1B68074A43F010031360032000F066
:100B9C0007F9002000F008F8FFF7F6FE00231846CE
:100BAC0080BD00BF0020024080B582B000AF7860ED
:100BBC00124B1A68124B1B7819464FF47A73B3FB1D
:100BCC00F1F3B2FBF3F3184600F011F90346002BD6
:100BDC0001D001230EE07B680F2B0AD80022796824
:100BEC004FF0FF3000F0E7F8064A7B6813600023F3
:100BFC0000E0012318460837BD4680BD00000020E8
:100C0C00080000200400002080B400AF054B1B78C6
:100C1C001A46054B1B681344034A136000BFBD46BC
:100C2C0080BC704708000020C000002080B400AFDA
:100C3C00024B1B681846BD4680BC7047C0000020A4
:100C4C0080B485B000AF78607B6803F00703FB606D
:100C5C000C4BDB68BB60BA684FF6FF031340BB60FC
:100C6C00FB681A02BB68134343F0BF6343F40033C1
:100C7C00BB60044ABB68D36000BF1437BD4680BC60
:100C8C00704700BF00ED00E080B400AF044BDB68A0
:100C9C001B0A03F007031846BD4680BC704700BF13
:100CAC0000ED00E080B483B000AF03463960FB7107
:100CBC0097F90730002B0ADB3B68DAB20C4997F93D
:100CCC0007301201D2B20B4483F800230AE03B68D0
:100CDC00DAB20849FB7903F00F03043B1201D2B2DC
:100CEC000B441A7600BF0C37BD4680BC704700BF62
:100CFC0000E100E000ED00E080B489B000AFF860E6
:100D0C00B9607A60FB6803F00703FB61FB69C3F110
:100D1C000703042B28BF0423BB61FB690433062B98
:100D2C0002D9FB69033B00E000237B614FF0FF32EB
:100D3C00BB6902FA03F3DA43BB681A407B699A4039
:100D4C004FF0FF317B6901FA03F3D9437B680B4009
:100D5C00134318462437BD4680BC704780B582B01B
:100D6C0000AF78607B68013BB3F1807F01D3012336
:100D7C000FE00A4A7B68013B53600F214FF0FF30B4
:100D8C00FFF790FF054B00229A60044B07221A6074
:100D9C00002318460837BD4680BD00BF10E000E0B8
:100DAC0080B582B000AF78607868FFF749FF00BF6C
:100DBC000837BD4680BD80B586B000AF0346B9602C
:100DCC007A60FB7300237B61FFF75EFF78617A68C2
:100DDC00B9687869FFF790FF024697F90F30114612
:100DEC001846FFF75FFF00BF1837BD4680BD80B5C2
:100DFC0082B000AF78607868FFF7B0FF0346184602
:100E0C000837BD4680BD000080B483B000AF786069
:100E1C007B68042B06D1094B1B68084A43F004037A
:100E2C00136005E0054B1B68044A23F004031360B0
:100E3C0000BF0C37BD4680BC704700BF10E000E01F
:100E4C0080B48BB000AF7860396000237B620023E4
:100E5C003B6227E101227B6A02FA03F3FB613B68E8
:100E6C001B68FA691340BB61BA69FB699A4240F08E
:100E7C0016813B685B68122B34D0122B0DD8022BD9
:100E8C002BD0022B04D8002B31D0012B1CD048E0E6
:100E9C00032B43D0112B1BD043E0894A934226D01D
:100EAC00874A934206D8874A934220D0864A934277
:100EBC001DD036E0854A934219D0854A934216D00C
:100ECC00844A934213D02CE03B68DB683B6228E0F9
:100EDC003B68DB6804333B6223E03B68DB68083328
:100EEC003B621EE03B68DB680C333B6219E03B68FD
:100EFC009B68002B02D104233B6212E03B689B6889
:100F0C00012B05D108233B627B68FA691A6108E062
:100F1C0008233B627B68FA695A6102E000233B625A
:100F2C0000BFBB69FF2B01D87B6801E07B680433F1
:100F3C007B61BB69FF2B02D87B6A9B0002E07B6A5A
:100F4C00083B9B003B617B691A680F213B6901FAE6
:100F5C0003F3DB431A40396A3B6901FA03F31A4382
:100F6C007B691A603B685B6803F08053002B00F0D0
:100F7C009680594B9B69584A43F001039361564B39
:100F8C009B6903F00103BB60BB68544A7B6A9B08F6
:100F9C00023352F82330FB607B6A03F003039B009F
:100FAC000F2202FA03F3DB43FA681340FB607B6801
:100FBC004B4A934213D07B684A4A93420DD07B68CC
:100FCC00494A934207D07B68484A934201D1032394
:100FDC0006E0042304E0022302E0012300E00023E6
:100FEC007A6A02F0030292009340FA681343FB60A2
:100FFC003A497B6A9B080233FA6841F823203B6824
:10100C005B6803F48033002B06D0394B1A683849DF
:10101C00BB6913430B6006E0354B1A68BB69DB43B5
:10102C00334913400B603B685B6803F40033002BBF
:10103C0006D02F4B5A682E49BB6913434B6006E010
:10104C002B4B5A68BB69DB43294913404B603B6807
:10105C005B6803F48013002B06D0254B9A68244957
:10106C00BB6913438B6006E0214B9A68BB69DB4379
:10107C001F4913408B603B685B6803F40013002B23
:10108C0006D01B4BDA681A49BB691343CB6006E0E8
:10109C00174BDA68BB69DB4315491340CB607B6A9D
:1010AC0001337B623B681A687B6A22FA03F3002BDC
:1010BC007FF4D0AE00BF2C37BD4680BC704700BF5C
:1010CC00000021100000111000001210000031105F
:1010DC0000003210000022100010024000000140FD
:1010EC0000080140000C01400010014000140140B8
:1010FC000004014080B483B000AF78600B467B8065
:10110C0013467B707B78002B03D07A887B681A613E
:10111C0003E07B881A047B681A6100BF0C37BD465C
:10112C0080BC704780B584B000AF78607B68002BC2
:10113C0001D101231FE17B6893F83D30DBB2002B1A
:10114C0006D17B68002283F83C207868FFF782FB8D
:10115C007B68242283F83D207B681B681A687B68B7
:10116C001B6822F001021A607B681B681A687B6896
:10117C001B6842F400421A607B681B681A687B6823
:10118C001B6822F400421A6000F0DAFCF8607B68FD
:10119C005B687B4A934207D8FB687A4A934294BFB8
:1011AC0001230023DBB206E0FB68774A934294BF2D
:1011BC0001230023DBB2002B01D00123DBE0FB6811
:1011CC00724AA2FB03239B0CBB607B681B685B68A9
:1011DC0023F03F017B681B68BA680A435A607B683E
:1011EC001B681B6A23F03F017B685B68644A93426F
:1011FC0002D8BB68013309E0BB684FF4967202FB5E
:10120C0003F3634AA2FB03239B0901337A68126838
:10121C000B4313627B681B68DB6923F44F4222F09B
:10122C00FF027B685B6856498B420DD8FB68591EE0
:10123C007B685B685B00B1FBF3F30133C3F30B0317
:10124C00042B38BF04234FE07B689B68002B11D123
:10125C00FB68581E7B6859680B465B000B44B0FB5F
:10126C00F3F30133C3F30B03002B0CBF0123002357
:10127C00DBB212E0FB68581E7B6859680B469B007A
:10128C000B4499000B44B0FBF3F30133C3F30B0392
:10129C00002B0CBF01230023DBB2002B01D0012358
:1012AC0022E07B689B68002B0ED1FB68581E7B6884
:1012BC0059680B465B000B44B0FBF3F30133C3F3EB
:1012CC000B0343F400430FE0FB68581E7B6859681E
:1012DC000B469B000B4499000B44B0FBF3F301331A
:1012EC00C3F30B0343F44043796809681343CB61A0
:1012FC007B681B681B6823F0C0017B68DA697B681C
:10130C001B6A1A437B681B680A431A607B681B685C
:10131C009B6823F4034323F0FF037A6811697A680E
:10132C00D26811437A6812680B4393607B681B6820
:10133C00DB6823F0FF017B685A697B689B691A4361
:10134C007B681B680A43DA607B681B681A687B68D9
:10135C001B6842F001021A607B6800221A647B68E9
:10136C00202283F83D207B6800221A637B680022D0
:10137C0083F83E20002318461037BD4680BD00BFC1
:10138C00A08601007F841E00FF083D0083DE1B4306
:10139C00D34D621080B586B000AF78607B68002BAF
:1013AC0001D101236CE27B681B6803F00103002B65
:1013BC0000F08780924B5B6803F00C03042B0CD07D
:1013CC008F4B5B6803F00C03082B12D18C4B5B68C2
:1013DC0003F48033B3F5803F0BD1894B1B6803F4C6
:1013EC000033002B6CD07B685B68002B68D1012329
:1013FC0046E27B685B68B3F5803F06D1804B1B6887
:10140C007F4A43F4803313602EE07B685B68002BCB
:10141C000CD17B4B1B687A4A23F480331360784BD6
:10142C001B68774A23F4802313601DE07B685B689C
:10143C00B3F5A02F0CD1724B1B68714A43F4802377
:10144C0013606F4B1B686E4A43F4803313600BE0E0
:10145C006B4B1B686A4A23F480331360684B1B6820
:10146C00674A23F4802313607B685B68002B13D0DE
:10147C00FFF7DCFB386108E0FFF7D8FB02463B695D
:10148C00D31A642B01D90323FAE15D4B1B6803F4D7
:10149C000033002BF0D014E0FFF7C8FB386108E0F4
:1014AC00FFF7C4FB02463B69D31A642B01D9032313
:1014BC00E6E1534B1B6803F40033002BF0D100E042
:1014CC0000BF7B681B6803F00203002B63D04C4BFE
:1014DC005B6803F00C03002B0BD0494B5B6803F0EB
:1014EC000C03082B1CD1464B5B6803F48033002B98
:1014FC0016D1434B1B6803F00203002B05D07B680D
:10150C001B69012B01D00123BAE13D4B1B6823F071
:10151C00F8027B685B69DB00394913430B603AE0E6
:10152C007B681B69002B20D0364B01221A60FFF719
:10153C007DFB386108E0FFF779FB02463B69D31A63
:10154C00022B01D903239BE12D4B1B6803F00203F3
:10155C00002BF0D02A4B1B6823F0F8027B685B69E8
:10156C00DB00274913430B6015E0264B00221A6061
:10157C00FFF75CFB386108E0FFF758FB02463B695C
:10158C00D31A022B01D903237AE11D4B1B6803F0FC
:10159C000203002BF0D17B681B6803F00803002BBF
:1015AC003AD07B689B69002B19D0174B01221A602B
:1015BC00FFF73CFB386108E0FFF738FB02463B695C
:1015CC00D31A022B01D903235AE10D4B5B6A03F0AA
:1015DC000203002BF0D0012000F0DAFA1CE00A4BD9
:1015EC0000221A60FFF722FB38610FE0FFF71EFBA9
:1015FC0002463B69D31A022B08D9032340E100BFF2
:10160C000010024000004242800442429E4B5B6A42
:10161C0003F00203002BE9D17B681B6803F0040381
:10162C00002B00F0A6800023FB75974BDB6903F0C1
:10163C008053002B0DD1944BDB69934A43F08053BC
:10164C00D361914BDB6903F08053BB60BB68012312
:10165C00FB758E4B1B6803F48073002B18D18B4BDE
:10166C001B688A4A43F480731360FFF7DFFA386112
:10167C0008E0FFF7DBFA02463B69D31A642B01D969
:10168C000323FDE0814B1B6803F48073002BF0D027
:10169C007B68DB68012B06D17B4B1B6A7A4A43F0D3
:1016AC00010313622DE07B68DB68002B0CD1764BB9
:1016BC001B6A754A23F001031362734B1B6A724A4F
:1016CC0023F0040313621CE07B68DB68052B0CD150
:1016DC006D4B1B6A6C4A43F0040313626A4B1B6A22
:1016EC00694A43F0010313620BE0674B1B6A664ABD
:1016FC0023F001031362644B1B6A634A23F0040357
:10170C0013627B68DB68002B15D0FFF78FFA38610A
:10171C000AE0FFF78BFA02463B69D31A41F2883292
:10172C00934201D90323ABE0574B1B6A03F002032E
:10173C00002BEED014E0FFF779FA38610AE0FFF7DE
:10174C0075FA02463B69D31A41F28832934201D9A9
:10175C00032395E04C4B1B6A03F00203002BEED1E4
:10176C00FB7D012B05D1484BDB69474A23F08053A5
:10177C00D3617B68DB69002B00F08180424B5B6896
:10178C0003F00C03082B61D07B68DB69022B46D17C
:10179C003F4B00221A60FFF749FA386108E0FFF767
:1017AC0045FA02463B69D31A022B01D9032367E0A1
:1017BC00354B1B6803F00073002BF0D17B681B6A60
:1017CC00B3F5803F08D1304B5B6823F400327B6863
:1017DC009B682D4913434B602B4B5B6823F47412AD
:1017EC007B68196A7B685B6A0B43274913434B6020
:1017FC00274B01221A60FFF719FA386108E0FFF74E
:10180C0015FA02463B69D31A022B01D9032337E0A0
:10181C001D4B1B6803F00073002BF0D02FE01C4B0A
:10182C0000221A60FFF702FA386108E0FFF7FEF9B0
:10183C0002463B69D31A022B01D9032320E0124B39
:10184C001B6803F00073002BF0D118E07B68DB6998
:10185C00012B01D1012313E00B4B5B68FB60FB6890
:10186C0003F480327B681B6A9A4206D1FB6803F44E
:10187C0070127B685B6A9A4201D0012300E000235E
:10188C0018461837BD4680BD00100240007000405D
:10189C006000424280B584B000AF786039607B68EC
:1018AC00002B01D10123D0E06A4B1B6803F0070326
:1018BC003A689A4210D9674B1B6823F007026549B6
:1018CC003B6813430B60634B1B6803F007033A68D8
:1018DC009A4201D00123B8E07B681B6803F0020335
:1018EC00002B20D07B681B6803F00403002B05D071
:1018FC00594B5B68584A43F4E06353607B681B6840
:10190C0003F00803002B05D0534B5B68524A43F499
:10191C0060535360504B5B6823F0F0027B689B680C
:10192C004D4913434B607B681B6803F00103002B8C
:10193C0040D07B685B68012B07D1474B1B6803F4D5
:10194C000033002B15D101237FE07B685B68022BF1
:10195C0007D1414B1B6803F00073002B09D1012305
:10196C0073E03D4B1B6803F00203002B01D10123F4
:10197C006BE0394B5B6823F003027B685B6836498C
:10198C0013434B60FFF752F9F8600AE0FFF74EF98A
:10199C000246FB68D31A41F28832934201D90323E1
:1019AC0053E02D4B5B6803F00C027B685B689B007B
:1019BC009A42EBD1274B1B6803F007033A689A4213
:1019CC0010D2244B1B6823F0070222493B681343B7
:1019DC000B60204B1B6803F007033A689A4201D056
:1019EC00012332E07B681B6803F00403002B08D052
:1019FC00194B5B6823F4E0627B68DB681649134380
:101A0C004B607B681B6803F00803002B09D0124B5A
:101A1C005B6823F460527B681B69DB000E4913433F
:101A2C004B6000F021F801460B4B5B681B0903F07F
:101A3C000F030A4AD35C21FA03F3094A1360094BDA
:101A4C001B681846FFF7B0F8002318461037BD4640
:101A5C0080BD00BF0020024000100240141E000890
:101A6C00000000200400002090B48AB000AF2A4B84
:101A7C003C1D0FCB84E80F00284B1B883B800023B8
:101A8C00FB610023BB6100237B6200237B6100238D
:101A9C003B62234B5B68FB61FB6903F00C03042B7B
:101AAC0002D0082B03D02DE01E4B3B622DE0FB69CE
:101ABC009B0C03F00F0307F12802134413F8243C8A
:101ACC007B61FB6903F48033002B13D0144B5B68F0
:101ADC005B0C03F0010307F12802134413F8283CB4
:101AEC00BB617B690F4A02FB03F2BB69B2FBF3F3E8
:101AFC007B6204E07B690C4A02FB03F37B627B6A2A
:101B0C003B6202E0074B3B6200BF3B6A184628373A
:101B1C00BD4690BC704700BF001E0008101E000898
:101B2C000010024000127A0000093D0080B400AFA2
:101B3C00024B1B681846BD4680BC70470000002055
:101B4C0080B500AFFFF7F2FF0146054B5B681B0A3F
:101B5C0003F00703034AD35C21FA03F3184680BD54
:101B6C0000100240241E000880B500AFFFF7DEFF16
:101B7C000146054B5B68DB0A03F00703034AD35CA1
:101B8C0021FA03F3184680BD00100240241E000801
:101B9C0080B485B000AF78600A4B1B680A4AA2FB80
:101BAC0003235B0A7A6802FB03F3FB6000BFFB684C
:101BBC005A1EFA60002BF9D100BF1437BD4680BC09
:101BCC00704700BF00000020D34D621080B582B07A
:101BDC0000AF78607B68002B01D101233FE07B686C
:101BEC0093F83930DBB2002B06D17B68002283F8E6
:101BFC0038207868FEF752FF7B68242283F839205E
:101C0C007B681B68DA687B681B6822F40052DA6018
:101C1C00786800F029F87B681B681A697B681B6878
:101C2C0022F490421A617B681B685A697B681B68B6
:101C3C0022F02A025A617B681B68DA687B681B6891
:101C4C0042F40052DA607B680022DA637B6820225F
:101C5C0083F839207B68202283F83A200023184629
:101C6C000837BD4680BD000080B584B000AF7860F9
:101C7C007B681B681B6923F440517B68DA687B68BE
:101C8C001B680A431A617B689A687B681B691A4354
:101C9C007B685B691343BB607B681B68DB6823F460
:101CAC00B05323F00C037A681268B9680B43D36005
:101CBC007B681B685B6923F440717B689A697B685D
:101CCC001B680A435A617B681B682C4A934203D1F8
:101CDC00FFF74AFFF86002E0FFF732FFF860FA689E
:101CEC0013469B0013449A001A447B685B689B0064
:101CFC00B2FBF3F3224AA2FB03235B091901FA6836
:101D0C0013469B0013449A001A447B685B689B0043
:101D1C00B2FBF3F21A4BA3FB02035B09642000FB3A
:101D2C0003F3D31A1B013233154AA2FB03235B09BD
:101D3C0003F0F0031944FA6813469B0013449A000D
:101D4C001A447B685B689B00B2FBF3F20C4BA3FB61
:101D5C0002035B09642000FB03F3D31A1B0132332B
:101D6C00074AA2FB03235B0903F00F027B681B6885
:101D7C000A449A6000BF1037BD4680BD0038014050
:101D8C001F85EB5170B500250C4E0D4CA41BA410F7
:101D9C00A54209D100F022F800250A4E0A4CA41BDA
:101DAC00A410A54205D170BD56F8253098470135D1
:101DBC00EEE756F8253098470135F2E72C1E00085F
:101DCC002C1E00082C1E0008301E0008034602447E
:101DDC00934200D1704703F8011BF9E7F8B500BF37
:101DEC00F8BC08BC9E467047F8B500BFF8BC08BCF0
:041DFC009E46704748
:101E000002030405060708090A0B0C0D0E0F10103B
:101E100001020000000000000000000001020304B5
:0C1E20000607080900000000010203048E
:041E2C003101000878
:041E30000D01000898
:0C1E34000024F400100000000100000079
:0400000508000B3DA7
:00000001FF
