:020000040800F2
:1000000000500020850F0008410E0008470E000830
:100010004D0E0008530E0008590E000800000000A5
:100020000000000000000000000000005F0E00085B
:100030006B0E000800000000770E0008830E000819
:10004000CD0F0008CD0F0008CD0F0008CD0F000820
:10005000CD0F0008CD0F0008CD0F0008CD0F000810
:10006000CD0F0008CD0F0008CD0F0008CD0F000800
:10007000CD0F0008CD0F0008CD0F0008CD0F0008F0
:10008000CD0F0008CD0F0008CD0F0008CD0F0008E0
:10009000CD0F0008CD0F0008CD0F0008CD0F0008D0
:1000A000CD0F0008CD0F0008CD0F0008CD0F0008C0
:1000B000CD0F0008CD0F0008CD0F0008CD0F0008B0
:1000C000CD0F0008CD0F0008CD0F0008CD0F0008A0
:1000D000CD0F0008CD0F0008CD0F0008CD0F000890
:1000E000CD0F0008CD0F0008CD0F00080000000064
:1000F0000000000000000000000000000000000000
:0C01000000000000000000005FF808F1A3
:10010C0010B5054C237833B9044B13B10448AFF345
:10011C0000800123237010BD0C00002000000000A3
:10012C00FC26000808B5034B1BB103490348AFF389
:10013C00008008BD0000000010000020FC26000814
:10014C0080B500AF00F066FC00BF80BD80B489B004
:10015C0000AF78600023BB61194B5B687B61194B66
:10016C001A687B6802FB03F33B61154B9B68FB61D0
:10017C00134B9B68FB60FA68FB699A42F8D0FA68EB
:10018C00FB699A4206D2FA69FB68D31ABA6913441E
:10019C00BB6107E07A69FB68D21AFB691344BA6940
:1001AC001344BB61FB68FB61BA693B699A4200D29C
:1001BC00DEE700BF00BF2437BD4680BC704700BFE0
:1001CC0010E000E02800002080B584B000AF0346AA
:1001DC00FB800023FB6006E04FF47A70FFF7B6FF5C
:1001EC00FB680133FB60FB88FA689A42F4D300BFCA
:1001FC001037BD4680BD000080B582B000AF03460D
:10020C00FB71042001F024F8FB79034A136000BF52
:10021C000837BD4680BD00BF2800002080B582B0E5
:10022C0000AF786039603B689AB264237968034800
:10023C0001F074FF00BF0837BD4680BD8000002070
:10024C0080B500AF00F060F9112000F00FF900202C
:10025C0000F028F9CF2000F009F9002000F022F975
:10026C00C12000F01FF9302000F01CF9ED2000F047
:10027C00FDF8642000F016F9032000F013F91220A9
:10028C0000F010F9812000F00DF9E82000F0EEF8F4
:10029C00852000F007F9112000F004F9782000F017
:1002AC0001F9F62000F0E2F8012000F0FBF8302014
:1002BC0000F0F8F8002000F0F5F8CB2000F0D6F8AC
:1002CC00392000F0EFF82C2000F0ECF8002000F0C2
:1002DC00E9F8342000F0E6F8052000F0E3F8F72008
:1002EC0000F0C4F8202000F0DDF8EA2000F0BEF8A1
:1002FC00002000F0D7F8002000F0D4F8C02000F067
:10030C00B5F8202000F0CEF8C12000F0AFF8112095
:10031C0000F0C8F8C52000F0A9F8312000F0C2F8B0
:10032C003C2000F0BFF8C72000F0A0F8A92000F096
:10033C00B9F83A2000F09AF8552000F0B3F83620BE
:10034C0000F094F8482000F0ADF8B12000F08EF8E1
:10035C00002000F0A7F8182000F0A4F8B42000F05A
:10036C0085F8002000F09EF8002000F09BF8F220A9
:10037C0000F07CF8002000F095F8262000F076F8CC
:10038C00012000F08FF8E02000F070F80F2000F052
:10039C0089F8172000F086F8142000F083F8092063
:1003AC0000F080F80C2000F07DF8062000F07AF8C0
:1003BC00432000F077F8752000F074F8362000F038
:1003CC0071F8082000F06EF8132000F06BF805208F
:1003DC0000F068F8102000F065F80B2000F062F8CF
:1003EC00082000F05FF8E12000F040F8002000F059
:1003FC0059F81F2000F056F8232000F053F8032082
:10040C0000F050F80E2000F04DF8042000F04AF8EF
:10041C00392000F047F8252000F044F84D2000F07A
:10042C0041F8062000F03EF80D2000F03BF80B20C0
:10043C0000F038F8332000F035F8372000F032F8AF
:10044C000F2000F02FF8292000F010F800BF80BD1D
:10045C0080B582B000AF0346FB71FB1D012118462D
:10046C00FFF7DCFE00BF0837BD4680BD80B582B00B
:10047C0000AF0346FB710A4B4FF400625A61084B04
:10048C004FF480625A61FB791846FFF7E1FF044B89
:10049C004FF400621A6100BF0837BD4680BD00BF33
:1004AC00000C014080B582B000AF0346FB710A4BD3
:1004BC004FF400625A61084B4FF480621A61FB7969
:1004CC001846FFF7C5FF044B4FF400621A6100BFDA
:1004DC000837BD4680BD00BF000C014080B582B01E
:1004EC0000AF0346FB80FB881B0A9BB2DBB21846AD
:1004FC00FFF7D8FFFB88DBB21846FFF7D3FF00BF2E
:10050C000837BD4680BD000080B500AF074B4FF4E7
:10051C0080525A616420FFF757FE044B4FF480520F
:10052C001A613220FFF750FE00BF80BD000C014065
:10053C0080B584B000AF0346FB8040F23F13EF223E
:10054C000021002000F083F8124B4FF400625A6136
:10055C00104B4FF480621A610023FB600EE0FB88A5
:10056C001B0A9BB2DBB21846FFF772FFFB88DBB2AB
:10057C001846FFF76DFFFB680133FB60FB68B3F5B2
:10058C00963FECD3034B4FF400621A6100BF103757
:10059C00BD4680BD000C014090B585B000AF04464F
:1005AC00084611461A462346FB800346BB800B4681
:1005BC007B8013463B807B88013B9AB23B88013B96
:1005CC009BB2B988F88800F042F8114B4FF40062E6
:1005DC005A610F4B4FF480621A610023FB6006E0F6
:1005EC003B8C1846FFF77AFFFB680133FB607B8876
:1005FC003A8802FB03F31A46FB689342F0D3044B90
:10060C004FF400621A6100BF1437BD4690BD00BFA5
:10061C00000C014080B582B000AF03460A46FB8057
:10062C001346BB802A20FFF721FFFB881846FFF7F3
:10063C0055FF2B20FFF71AFFBB881846FFF74EFF1C
:10064C002C20FFF713FF00BF0837BD4680BD90B5C7
:10065C0083B000AF0446084611461A462346FB8079
:10066C000346BB800B467B8013463B802A20FFF75A
:10067C00FDFEFB881846FFF731FF7B881846FFF715
:10068C002DFF2B20FFF7F2FEBB881846FFF726FF45
:10069C003B881846FFF722FF2C20FFF7E7FE00BF30
:1006AC000C37BD4690BD000080B400AF034B4FF437
:1006BC0000721A6100BFBD4680BC7047000C01403F
:1006CC0080B582B000AF0346FB800B46BB8013465F
:1006DC007B80BA88FB8811461846FFF79BFF7B8806
:1006EC001846FFF7FBFE00BF0837BD4680BD90B52E
:1006FC008BB000AF0446084611461A462346FB80D1
:10070C000346BB800B467B8013463B80BA88FB8834
:10071C0011461846FFF77EFF7A88FB88D31A7B6256
:10072C003A88BB88D31A3B627B6A002B02DB01231D
:10073C00FB6105E04FF0FF33FB617B6A5B427B6240
:10074C003B6A002B02DB0123BB6105E04FF0FF335A
:10075C00BB613B6A5B423B627B6A5B00FB603B6A52
:10076C005B00BB607A6A3B6A9A4229DDBA687B6A95
:10077C00D31A7B6100233B611DE03A8FB988FB885B
:10078C001846FFF79DFF7B69002B08DB7A69FB6835
:10079C00D31A7B61BB699AB2BB881344BB807A695C
:1007AC00BB6813447B61FB699AB2FB881344FB80E2
:1007BC003B6901333B613A697B6A9A42DDDD28E093
:1007CC00FA683B6AD31A7B6100233B611DE03A8FC8
:1007DC00B988FB881846FFF773FF7B69002B08DB91
:1007EC007A69BB68D31A7B61FB699AB2FB881344A4
:1007FC00FB807A69FB6813447B61BB699AB2BB8846
:10080C001344BB803B6901333B613A693B6A9A42B2
:10081C00DDDD00BF2C37BD4690BD90B585B000AF77
:10082C000446084611461A462346FB800346BB8005
:10083C000B467B8013463B800023FB817B88BB816E
:10084C007B885B00C3F10303BB6077E0FA88FB890C
:10085C00134498B2BA88BB8913449BB23A881946A0
:10086C00FFF72EFFFA88FB89D31A98B2BA88BB8996
:10087C0013449BB23A881946FFF722FFFA88FB898A
:10088C00134498B2BA88BB89D31A9BB23A881946DA
:10089C00FFF716FFFA88FB89D31A98B2BA88BB897E
:1008AC00D31A9BB23A881946FFF70AFFFA88BB891C
:1008BC00134498B2BA88FB8913449BB23A88194600
:1008CC00FFF7FEFEFA88BB89D31A98B2BA88FB8967
:1008DC0013449BB23A881946FFF7F2FEFA88BB899B
:1008EC00134498B2BA88FB89D31A9BB23A8819463A
:1008FC00FFF7E6FEFA88BB89D31A98B2BA88FB894F
:10090C00D31A9BB23A881946FFF7DAFEBB68002B64
:10091C0006DAFB899A00BB6813440633BB600AE015
:10092C00FA89BB89D31A9A00BB6813440A33BB609B
:10093C00BB89013BBB81FB890133FB81FA89BB89F4
:10094C009A4283D3FA89BB899A425FD1FA88FB8990
:10095C00134498B2BA88BB8913449BB23A8819469F
:10096C00FFF7AEFEFA88FB89D31A98B2BA88BB8916
:10097C0013449BB23A881946FFF7A2FEFA88FB890A
:10098C00134498B2BA88BB89D31A9BB23A881946D9
:10099C00FFF796FEFA88FB89D31A98B2BA88BB89FE
:1009AC00D31A9BB23A881946FFF78AFEFA88BB899C
:1009BC00134498B2BA88FB8913449BB23A881946FF
:1009CC00FFF77EFEFA88BB89D31A98B2BA88FB89E6
:1009DC0013449BB23A881946FFF772FEFA88BB891A
:1009EC00134498B2BA88FB89D31A9BB23A88194639
:1009FC00FFF766FEFA88BB89D31A98B2BA88FB89CE
:100A0C00D31A9BB23A881946FFF75AFE00BF143727
:100A1C00BD4690BD80B582B002AFFFF711FCFFF769
:100A2C0043FE4FF6FF70FFF783FD40F2FF73009318
:100A3C00C8233222FA21C820FFF759FE4FF478431D
:100A4C000A2264216420FFF7E8FE4FF4FC63009354
:100A5C00C823C82264216420FFF79EFD40F23F1397
:100A6C00EF2200210020FFF7F2FD4FF478430093B2
:100A7C00FA23C82232213220FFF739FE1F230093BC
:100A8C00FA2332223221C820FFF731FE1F230093B4
:100A9C00FA233222FA21C820FFF729FEFEE70000D4
:100AAC0080B588B000AF07F1100300221A605A60BD
:100ABC009A60DA601E4B9B691D4A43F020039361D8
:100ACC001B4B9B6903F02003FB60FB68184B9B6975
:100ADC00174A43F004039361154B9B6903F004031D
:100AEC00BB60BB68124B9B69114A43F008039361CE
:100AFC000F4B9B6903F008037B607B6800224FF46B
:100B0C00F0510C4800F01AFD4FF4F0533B610123F7
:100B1C007B610023BB610323FB6107F110031946C2
:100B2C00044800F0B1FB00BF2037BD4680BD00BFBC
:100B3C0000100240000C014080B500AF124B134A6C
:100B4C001A60114B124A5A600F4B00229A600E4BDE
:100B5C000022DA600C4B4FF480421A610A4B0022DF
:100B6C005A61094B00229A61074B0022DA61064B4D
:100B7C0000221A62044800F0F9FC0346002B01D055
:100B8C0000F09FF800BF80BD2C00002000540040F6
:100B9C00A086010080B588B000AF786007F1100323
:100BAC0000221A605A609A60DA607B681B68154AEA
:100BBC00934223D1144B9B69134A43F0080393616E
:100BCC00114B9B6903F00803FB60FB68C0233B617E
:100BDC0012237B610323FB6107F1100319460B48B9
:100BEC0000F052FB084BDB69074A43F40013D36156
:100BFC00054BDB6903F40013BB60BB6800BF2037F7
:100C0C00BD4680BD0054004000100240000C014065
:100C1C0080B500AF00F0D6F900F00EF84820FFF7D1
:100C2C00EBFAFFF73DFF00F051F8FFF785FF00F0FE
:100C3C002FF9FFF785FAFEE780B590B000AF07F10A
:100C4C00180328220021184601F04AFD3B1D002202
:100C5C001A605A609A60DA601A610123BB614FF422
:100C6C008033FB6100233B620123BB6202237B6365
:100C7C004FF48033BB634FF4E013FB6307F11803AD
:100C8C00184600F0ABFD0346002B01D000F019F81C
:100C9C000F237B600223BB600023FB604FF4806357
:100CAC003B6100237B613B1D0221184601F016F8C5
:100CBC000346002B01D000F004F800BF4037BD46BE
:100CCC0080BD80B400AF72B6FEE7000080B500AF07
:100CDC00174B184A1A60164B4FF482725A60144B19
:100CEC0000229A60124B0022DA60114B02221A6128
:100CFC000F4B01225A610E4B4FF400729A610C4B50
:100D0C000022DA610A4B00221A62094B00225A6255
:100D1C00074B00229A62064B0A22DA62044801F061
:100D2C0079F90346002B01D0FFF7CBFF00BF80BD44
:100D3C00800000200038004080B588B000AF78609B
:100D4C0007F1100300221A605A609A60DA607B681F
:100D5C001B681C4A934231D11B4BDB691A4A43F482
:100D6C008043D361184BDB6903F48043FB60FB6861
:100D7C00154B9B69144A43F008039361124B9B6912
:100D8C0003F00803BB60BB684FF420433B610223B4
:100D9C007B610323FB6107F1100319460B4800F03C
:100DAC0073FA4FF480433B6100237B610023BB61EA
:100DBC0007F110031946054800F066FA00BF20370A
:100DCC00BD4680BD0038004000100240000C0140C0
:100DDC0080B485B000AF154B9B69144A43F00103F6
:100DEC009361124B9B6903F00103BB60BB680F4B13
:100DFC00DB690E4A43F08053D3610C4BDB6903F083
:100E0C0080537B607B680A4B5B68FB60FB6823F05C
:100E1C00E063FB60FB6843F00073FB60044AFB6813
:100E2C00536000BF1437BD4680BC704700100240B1
:100E3C000000014080B400AFFEE780B400AFFEE7D5
:100E4C0080B400AFFEE780B400AFFEE780B400AF23
:100E5C00FEE780B400AF00BFBD4680BC704780B4D5
:100E6C0000AF00BFBD4680BC704780B400AF00BF70
:100E7C00BD4680BC704780B500AF00F0E9F800BFFC
:100E8C0080BD80B400AF00BFBD4680BC7047000081
:100E9C0080B500AF114B124A1A60104B4FF4E1327F
:100EAC005A600E4B00229A600C4B0022DA600B4BFE
:100EBC0000221A61094B0C225A61084B00229A61DC
:100ECC00064B0022DA61054801F00AFB0346002BB1
:100EDC0001D0FFF7F6FE00BF80BD00BFD800002098
:100EEC000044004080B588B000AF786007F1100373
:100EFC0000221A605A609A60DA607B681B681B4A91
:100F0C0093422FD11A4BDB69194A43F40033D36156
:100F1C00174BDB6903F40033FB60FB68144B9B69D4
:100F2C00134A43F004039361114B9B6903F00403D0
:100F3C00BB60BB6804233B6102237B610323FB6121
:100F4C0007F1100319460B4800F09EF908233B618A
:100F5C0000237B610023BB6107F110031946054890
:100F6C0000F092F900BF2037BD4680BD0044004020
:100F7C000010024000080140002103E00B4B5B58BD
:100F8C00435004310A480B4B42189A42F6D30A4A92
:100F9C0002E0002342F8043B084B9A42F9D3FFF7D6
:100FAC0070FF01F079FBFFF733FE7047482700080C
:100FBC00000000200C0000200C0000201C01002070
:100FCC00FEE7000080B500AF084B1B68074A43F0F2
:100FDC0010031360032000F007F9002000F008F85C
:100FEC00FFF7F6FE0023184680BD00BF002002402C
:100FFC0080B582B000AF7860124B1A68124B1B7828
:10100C0019464FF47A73B3FBF1F3B2FBF3F31846C2
:10101C0000F011F90346002B01D001230EE07B6890
:10102C000F2B0AD8002279684FF0FF3000F0E7F858
:10103C00064A7B681360002300E00123184608373A
:10104C00BD4680BD000000200800002004000020E8
:10105C0080B400AF054B1B781A46054B1B68134434
:10106C00034A136000BFBD4680BC704708000020D7
:10107C001801002080B400AF024B1B681846BD4617
:10108C0080BC70471801002080B485B000AF786038
:10109C007B6803F00703FB600C4BDB68BB60BA6832
:1010AC004FF6FF031340BB60FB681A02BB68134387
:1010BC0043F0BF6343F40033BB60044ABB68D360A6
:1010CC0000BF1437BD4680BC704700BF00ED00E088
:1010DC0080B400AF044BDB681B0A03F0070318460F
:1010EC00BD4680BC704700BF00ED00E080B483B00B
:1010FC0000AF03463960FB7197F90730002B0ADB10
:10110C003B68DAB20C4997F907301201D2B20B44A2
:10111C0083F800230AE03B68DAB20849FB7903F054
:10112C000F03043B1201D2B20B441A7600BF0C37EA
:10113C00BD4680BC704700BF00E100E000ED00E060
:10114C0080B489B000AFF860B9607A60FB6803F0D6
:10115C000703FB61FB69C3F10703042B28BF0423BE
:10116C00BB61FB690433062B02D9FB69033B00E02E
:10117C0000237B614FF0FF32BB6902FA03F3DA43C1
:10118C00BB681A407B699A404FF0FF317B6901FACA
:10119C0003F3D9437B680B40134318462437BD46F1
:1011AC0080BC704780B582B000AF78607B68013B33
:1011BC00B3F1807F01D301230FE00A4A7B68013B26
:1011CC0053600F214FF0FF30FFF790FF054B0022CB
:1011DC009A60044B07221A60002318460837BD4654
:1011EC0080BD00BF10E000E080B582B000AF786039
:1011FC007868FFF749FF00BF0837BD4680BD80B552
:10120C0086B000AF0346B9607A60FB7300237B6144
:10121C00FFF75EFF78617A68B9687869FFF790FF2D
:10122C00024697F90F3011461846FFF75FFF00BFD3
:10123C001837BD4680BD80B582B000AF7860786845
:10124C00FFF7B0FF034618460837BD4680BD0000C7
:10125C0080B483B000AF78607B68042B06D1094B57
:10126C001B68084A43F00403136005E0054B1B6838
:10127C00044A23F00403136000BF0C37BD4680BC46
:10128C00704700BF10E000E080B48BB000AF786016
:10129C00396000237B6200233B6227E101227B6AD9
:1012AC0002FA03F3FB613B681B68FA691340BB61EC
:1012BC00BA69FB699A4240F016813B685B68122B55
:1012CC0034D0122B0DD8022B2BD0022B04D8002B90
:1012DC0031D0012B1CD048E0032B43D0112B1BD059
:1012EC0043E0894A934226D0874A934206D8874ADC
:1012FC00934220D0864A93421DD036E0854A9342D1
:10130C0019D0854A934216D0844A934213D02CE0CC
:10131C003B68DB683B6228E03B68DB6804333B627C
:10132C0023E03B68DB6808333B621EE03B68DB680C
:10133C000C333B6219E03B689B68002B02D1042301
:10134C003B6212E03B689B68012B05D108233B6292
:10135C007B68FA691A6108E008233B627B68FA69CA
:10136C005A6102E000233B6200BFBB69FF2B01D82E
:10137C007B6801E07B6804337B61BB69FF2B02D87F
:10138C007B6A9B0002E07B6A083B9B003B617B69AC
:10139C001A680F213B6901FA03F3DB431A40396ADF
:1013AC003B6901FA03F31A437B691A603B685B687B
:1013BC0003F08053002B00F09680594B9B69584AE0
:1013CC0043F001039361564B9B6903F00103BB602F
:1013DC00BB68544A7B6A9B08023352F82330FB608B
:1013EC007B6A03F003039B000F2202FA03F3DB4337
:1013FC00FA681340FB607B684B4A934213D07B68BE
:10140C004A4A93420DD07B68494A934207D07B6885
:10141C00484A934201D1032306E0042304E002234B
:10142C0002E0012300E000237A6A02F0030292003A
:10143C009340FA681343FB603A497B6A9B0802337A
:10144C00FA6841F823203B685B6803F48033002B77
:10145C0006D0394B1A683849BB6913430B6006E058
:10146C00354B1A68BB69DB43334913400B603B684F
:10147C005B6803F40033002B06D02F4B5A682E49BF
:10148C00BB6913434B6006E02B4B5A68BB69DB43CB
:10149C00294913404B603B685B6803F48013002BB5
:1014AC0006D0254B9A682449BB6913438B6006E030
:1014BC00214B9A68BB69DB431F4913408B603B6827
:1014CC005B6803F40013002B06D01B4BDA681A4937
:1014DC00BB691343CB6006E0174BDA68BB69DB438F
:1014EC0015491340CB607B6A01337B623B681A68F9
:1014FC007B6A22FA03F3002B7FF4D0AE00BF2C37AB
:10150C00BD4680BC704700BF0000211000001110C8
:10151C0000001210000031100000321000002210E8
:10152C00001002400000014000080140000C014086
:10153C0000100140001401400004014080B483B04D
:10154C0000AF78600B467B8013467B707B78002B5A
:10155C0003D07A887B681A6103E07B881A047B6865
:10156C001A6100BF0C37BD4680BC704780B584B093
:10157C0000AF78607B68002B01D101231FE17B68F1
:10158C0093F83D30DBB2002B06D17B68002283F848
:10159C003C207868FFF7FEFA7B68242283F83D2014
:1015AC007B681B681A687B681B6822F001021A6052
:1015BC007B681B681A687B681B6842F400421A60DF
:1015CC007B681B681A687B681B6822F400421A60EF
:1015DC0000F0DAFCF8607B685B687B4A934207D8C2
:1015EC00FB687A4A934294BF01230023DBB206E0E6
:1015FC00FB68774A934294BF01230023DBB2002B94
:10160C0001D00123DBE0FB68724AA2FB03239B0C95
:10161C00BB607B681B685B6823F03F017B681B68C1
:10162C00BA680A435A607B681B681B6A23F03F0147
:10163C007B685B68644A934202D8BB68013309E05B
:10164C00BB684FF4967202FB03F3634AA2FB0323BD
:10165C009B0901337A6812680B4313627B681B6821
:10166C00DB6923F44F4222F0FF027B685B6856492A
:10167C008B420DD8FB68591E7B685B685B00B1FB25
:10168C00F3F30133C3F30B03042B38BF04234FE0F4
:10169C007B689B68002B11D1FB68581E7B685968CE
:1016AC000B465B000B44B0FBF3F30133C3F30B03AA
:1016BC00002B0CBF01230023DBB212E0FB68581E89
:1016CC007B6859680B469B000B4499000B44B0FB9C
:1016DC00F3F30133C3F30B03002B0CBF01230023E3
:1016EC00DBB2002B01D0012322E07B689B68002B2E
:1016FC000ED1FB68581E7B6859680B465B000B4487
:10170C00B0FBF3F30133C3F30B0343F400430FE0DB
:10171C00FB68581E7B6859680B469B000B4499006C
:10172C000B44B0FBF3F30133C3F30B0343F440431B
:10173C00796809681343CB617B681B681B6823F0CD
:10174C00C0017B68DA697B681B6A1A437B681B687B
:10175C000A431A607B681B689B6823F4034323F0DD
:10176C00FF037A6811697A68D26811437A68126843
:10177C000B4393607B681B68DB6823F0FF017B687D
:10178C005A697B689B691A437B681B680A43DA6059
:10179C007B681B681A687B681B6842F001021A6040
:1017AC007B6800221A647B68202283F83D207B68CA
:1017BC0000221A637B68002283F83E20002318461F
:1017CC001037BD4680BD00BFA08601007F841E007F
:1017DC00FF083D0083DE1B43D34D621080B586B0FD
:1017EC0000AF78607B68002B01D101236CE27B6831
:1017FC001B6803F00103002B00F08780924B5B68A1
:10180C0003F00C03042B0CD08F4B5B6803F00C0320
:10181C00082B12D18C4B5B6803F48033B3F5803FFB
:10182C000BD1894B1B6803F40033002B6CD07B6805
:10183C005B68002B68D1012346E27B685B68B3F5DB
:10184C00803F06D1804B1B687F4A43F48033136082
:10185C002EE07B685B68002B0CD17B4B1B687A4AB3
:10186C0023F480331360784B1B68774A23F480236E
:10187C0013601DE07B685B68B3F5A02F0CD1724B35
:10188C001B68714A43F4802313606F4B1B686E4ACC
:10189C0043F4803313600BE06B4B1B686A4A23F4F0
:1018AC0080331360684B1B68674A23F480231360F2
:1018BC007B685B68002B13D0FFF7DCFB386108E01A
:1018CC00FFF7D8FB02463B69D31A642B01D90323DB
:1018DC00FAE15D4B1B6803F40033002BF0D014E0ED
:1018EC00FFF7C8FB386108E0FFF7C4FB02463B6911
:1018FC00D31A642B01D90323E6E1534B1B6803F481
:10190C000033002BF0D100E000BF7B681B6803F0B4
:10191C000203002B63D04C4B5B6803F00C03002BD1
:10192C000BD0494B5B6803F00C03082B1CD1464BC6
:10193C005B6803F48033002B16D1434B1B6803F018
:10194C000203002B05D07B681B69012B01D00123FE
:10195C00BAE13D4B1B6823F0F8027B685B69DB0046
:10196C00394913430B603AE07B681B69002B20D08C
:10197C00364B01221A60FFF77DFB386108E0FFF758
:10198C0079FB02463B69D31A022B01D903239BE155
:10199C002D4B1B6803F00203002BF0D02A4B1B6865
:1019AC0023F0F8027B685B69DB00274913430B606B
:1019BC0015E0264B00221A60FFF75CFB386108E04B
:1019CC00FFF758FB02463B69D31A022B01D90323BC
:1019DC007AE11D4B1B6803F00203002BF0D17B68EE
:1019EC001B6803F00803002B3AD07B689B69002B23
:1019FC0019D0174B01221A60FFF73CFB386108E045
:101A0C00FFF738FB02463B69D31A022B01D903239B
:101A1C005AE10D4B5B6A03F00203002BF0D001205E
:101A2C0000F0DAFA1CE00A4B00221A60FFF722FBE6
:101A3C0038610FE0FFF71EFB02463B69D31A022BFD
:101A4C0008D9032340E100BF0010024000004242CD
:101A5C00800442429E4B5B6A03F00203002BE9D1E7
:101A6C007B681B6803F00403002B00F0A6800023A6
:101A7C00FB75974BDB6903F08053002B0DD1944B16
:101A8C00DB69934A43F08053D361914BDB6903F0DC
:101A9C008053BB60BB680123FB758E4B1B6803F442
:101AAC008073002B18D18B4B1B688A4A43F48073CC
:101ABC001360FFF7DFFA386108E0FFF7DBFA024644
:101ACC003B69D31A642B01D90323FDE0814B1B68BE
:101ADC0003F48073002BF0D07B68DB68012B06D1FC
:101AEC007B4B1B6A7A4A43F0010313622DE07B683F
:101AFC00DB68002B0CD1764B1B6A754A23F0010373
:101B0C001362734B1B6A724A23F0040313621CE0CA
:101B1C007B68DB68052B0CD16D4B1B6A6C4A43F060
:101B2C00040313626A4B1B6A694A43F00103136294
:101B3C000BE0674B1B6A664A23F001031362644B8C
:101B4C001B6A634A23F0040313627B68DB68002B77
:101B5C0015D0FFF78FFA38610AE0FFF78BFA0246CF
:101B6C003B69D31A41F28832934201D90323ABE08B
:101B7C00574B1B6A03F00203002BEED014E0FFF767
:101B8C0079FA38610AE0FFF775FA02463B69D31A15
:101B9C0041F28832934201D9032395E04C4B1B6AE6
:101BAC0003F00203002BEED1FB7D012B05D1484B3A
:101BBC00DB69474A23F08053D3617B68DB69002BD8
:101BCC0000F08180424B5B6803F00C03082B61D062
:101BDC007B68DB69022B46D13F4B00221A60FFF772
:101BEC0049FA386108E0FFF745FA02463B69D31A17
:101BFC00022B01D9032367E0354B1B6803F00073FC
:101C0C00002BF0D17B681B6AB3F5803F08D1304BB9
:101C1C005B6823F400327B689B682D4913434B604F
:101C2C002B4B5B6823F474127B68196A7B685B6AC4
:101C3C000B43274913434B60274B01221A60FFF7D4
:101C4C0019FA386108E0FFF715FA02463B69D31A16
:101C5C00022B01D9032337E01D4B1B6803F00073E3
:101C6C00002BF0D02FE01C4B00221A60FFF702FA79
:101C7C00386108E0FFF7FEF902463B69D31A022BE4
:101C8C0001D9032320E0124B1B6803F00073002BD7
:101C9C00F0D118E07B68DB69012B01D1012313E043
:101CAC000B4B5B68FB60FB6803F480327B681B6A40
:101CBC009A4206D1FB6803F470127B685B6A9A4205
:101CCC0001D0012300E0002318461837BD4680BD23
:101CDC0000100240007000406000424280B584B0A9
:101CEC0000AF786039607B68002B01D10123D0E014
:101CFC006A4B1B6803F007033A689A4210D9674B8A
:101D0C001B6823F0070265493B6813430B60634B68
:101D1C001B6803F007033A689A4201D00123B8E02C
:101D2C007B681B6803F00203002B20D07B681B68C8
:101D3C0003F00403002B05D0594B5B68584A43F45D
:101D4C00E06353607B681B6803F00803002B05D02D
:101D5C00534B5B68524A43F460535360504B5B687F
:101D6C0023F0F0027B689B684D4913434B607B6802
:101D7C001B6803F00103002B40D07B685B68012BD0
:101D8C0007D1474B1B6803F40033002B15D10123FB
:101D9C007FE07B685B68022B07D1414B1B6803F02B
:101DAC000073002B09D1012373E03D4B1B6803F03A
:101DBC000203002B01D101236BE0394B5B6823F04C
:101DCC0003027B685B68364913434B60FFF752F99B
:101DDC00F8600AE0FFF74EF90246FB68D31A41F2AD
:101DEC008832934201D9032353E02D4B5B6803F0F7
:101DFC000C027B685B689B009A42EBD1274B1B68FB
:101E0C0003F007033A689A4210D2244B1B6823F064
:101E1C00070222493B6813430B60204B1B6803F0FD
:101E2C0007033A689A4201D0012332E07B681B68B1
:101E3C0003F00403002B08D0194B5B6823F4E06219
:101E4C007B68DB68164913434B607B681B6803F0A7
:101E5C000803002B09D0124B5B6823F460527B689B
:101E6C001B69DB000E4913434B6000F021F801465F
:101E7C000B4B5B681B0903F00F030A4AD35C21FA76
:101E8C0003F3094A1360094B1B681846FFF7B0F8B7
:101E9C00002318461037BD4680BD00BF002002400D
:101EAC000010024028270008000000200400002039
:101EBC0090B48AB000AF2A4B3C1D0FCB84E80F00C6
:101ECC00284B1B883B800023FB610023BB61002354
:101EDC007B6200237B6100233B62234B5B68FB61CD
:101EEC00FB6903F00C03042B02D0082B03D02DE06C
:101EFC001E4B3B622DE0FB699B0C03F00F0307F1BB
:101F0C002802134413F8243C7B61FB6903F48033EF
:101F1C00002B13D0144B5B685B0C03F0010307F12F
:101F2C002802134413F8283CBB617B690F4A02FB5F
:101F3C0003F2BB69B2FBF3F37B6204E07B690C4AEE
:101F4C0002FB03F37B627B6A3B6202E0074B3B6262
:101F5C0000BF3B6A18462837BD4690BC704700BF8F
:101F6C0014270008242700080010024000127A00F1
:101F7C0000093D0080B400AF024B1B681846BD46FB
:101F8C0080BC70470000002080B500AFFFF7F2FF67
:101F9C000146054B5B681B0A03F00703034AD35C3D
:101FAC0021FA03F3184680BD0010024038270008C0
:101FBC0080B500AFFFF7DEFF0146054B5B68DB0A1F
:101FCC0003F00703034AD35C21FA03F3184680BDE0
:101FDC00001002403827000880B485B000AF78604C
:101FEC000A4B1B680A4AA2FB03235B0A7A6802FBB2
:101FFC0003F3FB6000BFFB685A1EFA60002BF9D19B
:10200C0000BF1437BD4680BC704700BF00000020E5
:10201C00D34D621080B582B000AF78607B68002B26
:10202C0001D1012376E07B685B6A002B08D17B68C9
:10203C005B68B3F5827F09D07B680022DA6105E02A
:10204C007B6800221A617B6800225A617B6800223F
:10205C009A627B6893F85130DBB2002B06D17B6817
:10206C00002283F850207868FEF766FE7B68022217
:10207C0083F851207B681B681A687B681B6822F008
:10208C0040021A607B685B6803F482727B689B6811
:10209C0003F404431A437B68DB6803F400631A43BC
:1020AC007B681B6903F002031A437B685B6903F0CE
:1020BC0001031A437B689B6903F400731A437B6822
:1020CC00DB6903F038031A437B681B6A03F0800357
:1020DC0042EA03017B689B6A03F400527B681B682D
:1020EC000A431A607B689B691A0C7B681B6802F0B8
:1020FC0004025A607B681B68DA697B681B6822F4EF
:10210C000062DA617B6800225A657B68012283F8E1
:10211C005120002318460837BD4680BD80B588B0D5
:10212C0000AFF860B9603B601346FB800023FB777F
:10213C00FB6893F85030012B01D1022326E1FB6898
:10214C00012283F85020FEF795FFB861FB88FB82D3
:10215C00FB6893F85130DBB2012B02D00223FB77E2
:10216C000BE1BB68002B02D0FB88002B02D10123B2
:10217C00FB7702E1FB68032283F85120FB68002205
:10218C005A65FB68BA681A63FB68FA889A86FB681A
:10219C00FA88DA86FB6800229A63FB6800229A8729
:1021AC00FB680022DA87FB6800225A64FB68002275
:1021BC001A64FB689B68B3F5004F0FD1FB681B6872
:1021CC001A68FB681B6822F040021A60FB681B68E7
:1021DC001A68FB681B6842F480421A60FB681B6833
:1021EC001B6803F04003402B07D0FB681B681A6880
:1021FC00FB681B6842F040021A60FB68DB68B3F5B1
:10220C00006F4BD1FB685B68002B02D0FB8A012B63
:10221C003ED1FB681B6B1A88FB681B68DA60FB6895
:10222C001B6B9A1CFB681A63FB68DB8E9BB2013B31
:10223C009AB2FB68DA862BE0FB681B689B6803F09C
:10224C000203022B12D1FB681B6B1A88FB681B68FC
:10225C00DA60FB681B6B9A1CFB681A63FB68DB8EED
:10226C009BB2013B9AB2FB68DA8611E0FEF702FFE3
:10227C000246BB69D31A3A689A4203D83B68B3F159
:10228C00FF3F02D13B68002B02D10323FB7774E0A4
:10229C00FB68DB8E9BB2002BCED14CE0FB685B68FD
:1022AC00002B02D0FB8A012B40D1FB681A6BFB6818
:1022BC001B680C3312781A70FB681B6B5A1CFB687A
:1022CC001A63FB68DB8E9BB2013B9AB2FB68DA8621
:1022DC002CE0FB681B689B6803F00203022B13D1F4
:1022EC00FB681A6BFB681B680C3312781A70FB685E
:1022FC001B6B5A1CFB681A63FB68DB8E9BB2013BA1
:10230C009AB2FB68DA8611E0FEF7B4FE0246BB69AE
:10231C00D31A3A689A4203D83B68B3F1FF3F02D113
:10232C003B68002B02D10323FB7726E0FB68DB8E96
:10233C009BB2002BCDD1BA693968F86800F0B2F8BD
:10234C000346002B02D0FB6820225A65FB689B6871
:10235C00002B0AD100233B61FB681B68DB683B61E7
:10236C00FB681B689B683B613B69FB685B6D002BE2
:10237C0002D00123FB7700E000BFFB68012283F849
:10238C005120FB68002283F85020FB7F1846203731
:10239C00BD4680BD80B588B000AFF860B9603B60C9
:1023AC001346FB71FEF766FE0246BB6A9B1A3A683F
:1023BC001344FB61FEF75EFEB861394B1B685B0191
:1023CC001B0DFA6902FB03F37B6154E03B68B3F12C
:1023DC00FF3F50D0FEF74EFE0246BB69D31AFA6996
:1023EC009A4202D9FB69002B3DD1FB681B685A68E5
:1023FC00FB681B6822F0E0025A60FB685B68B3F56F
:10240C00827F11D1FB689B68B3F5004F04D0FB6849
:10241C009B68B3F5806F07D1FB681B681A68FB6873
:10242C001B6822F040021A60FB689B6AB3F5005FE0
:10243C000FD1FB681B681A68FB681B6822F40052FA
:10244C001A60FB681B681A68FB681B6842F4005230
:10245C001A60FB68012283F85120FB68002283F884
:10246C005020032317E07B69002B01D10023FB6173
:10247C007B69013B7B61FB681B689A68BB681340F6
:10248C00BA689A420CBF01230023DBB21A46FB79CF
:10249C009A429BD1002318462037BD4680BD00BF11
:1024AC000000002080B586B002AFF860B9607A6099
:1024BC007B680093BB6800228021F868FFF76AFFF5
:1024CC000346002B07D0FB685B6D43F02002FB68D2
:1024DC005A65032300E0002318461037BD4680BD23
:1024EC0080B582B000AF78607B68002B01D10123EE
:1024FC003FE07B6893F83930DBB2002B06D17B6868
:10250C00002283F838207868FEF7ECFC7B682422E4
:10251C0083F839207B681B68DA687B681B6822F4B7
:10252C000052DA60786800F029F87B681B681A6939
:10253C007B681B6822F490421A617B681B685A699D
:10254C007B681B6822F02A025A617B681B68DA6878
:10255C007B681B6842F40052DA607B680022DA6305
:10256C007B68202283F839207B68202283F83A206C
:10257C00002318460837BD4680BD000080B584B0E6
:10258C0000AF78607B681B681B6923F440517B6843
:10259C00DA687B681B680A431A617B689A687B68F7
:1025AC001B691A437B685B691343BB607B681B68C0
:1025BC00DB6823F4B05323F00C037A681268B96813
:1025CC000B43D3607B681B685B6923F440717B68A9
:1025DC009A697B681B680A435A617B681B682C4AA2
:1025EC00934203D1FFF7E4FCF86002E0FFF7CCFC68
:1025FC00F860FA6813469B0013449A001A447B68EF
:10260C005B689B00B2FBF3F3224AA2FB03235B093A
:10261C001901FA6813469B0013449A001A447B680C
:10262C005B689B00B2FBF3F21A4BA3FB02035B0942
:10263C00642000FB03F3D31A1B013233154AA2FBAF
:10264C0003235B0903F0F0031944FA6813469B005B
:10265C0013449A001A447B685B689B00B2FBF3F24C
:10266C000C4BA3FB02035B09642000FB03F3D31A9E
:10267C001B013233074AA2FB03235B0903F00F0251
:10268C007B681B680A449A6000BF1037BD4680BD4A
:10269C00003801401F85EB5170B500250C4E0D4CD8
:1026AC00A41BA410A54209D100F022F800250A4E63
:1026BC000A4CA41BA410A54205D170BD56F82530B8
:1026CC0098470135EEE756F8253098470135F2E783
:1026DC00402700084027000840270008442700082E
:1026EC0003460244934200D1704703F8011BF9E7FB
:1026FC00F8B500BFF8BC08BC9E467047F8B500BFE3
:08270C00F8BC08BC9E467047B2
:1027140002030405060708090A0B0C0D0E0F10101E
:102724000102000000000000000000000102030498
:0C27340006070809000000000102030471
:04274000310100085B
:042744000D0100087B
:0C2748000024F40010000000010000005C
:0400000508000F855B
:00000001FF
